:02000000BD2A17
:06000600000000000800EC
:10000C000F3083120313FC004730FD00FD0B0C284E
:0A001C00FC0B0C2800000000080097
:0E002600213083120313FD00FD0B1728080084
:1000340083160313C21B21288312861323288312D9
:1000440086178316421B2928831206132B28831232
:1000540006178316C21A3128831286123328831294
:1000640086168316421A3928831206123B288312F5
:100074000616831634184128831206154328831262
:1000840006118615032086118316C2194C28831283
:1000940086134E2883128617831642195428831216
:1000A40006135628831206178316C2185C28831277
:1000B40086125E28831286168316421864288312D9
:1000C4000612662883120616831634186C288312C7
:1000D40006156E28831206118615032086118316D1
:0C00E400341C7628062077281320080022
:1000F00083160313C201C401C5011030C6000430C9
:1001000045020318A628F03083128800831646099A
:100110008800032003200F3083120805F0007008C8
:100120008316C30070080319A0284408C2004308BE
:1001300003199E28C30CC313C20A97280430C500B4
:10014000C60D46100430C407C50A7F284208F000D7
:020150000800A5
:10015200063083120313FD00FD0BAD2800000800DA
:10016200C328803083160313BF00D628C030BF00D7
:10017200D6289430BF00D628D430BF00D62880308D
:10018200BF00D628831603133F08013A0319B22889
:100192003F08023A0319B7283F08033A0319BA285D
:1001A2003F08043A0319BD28C0284003F0003F0865
:1001B200F0077008BF0034147008C2001A208316BA
:0E01C20034104108C2001A20831634140800BD
:1001D000831603178C1CEE280000E82803133F0841
:1001E000831203178D00831603134008831203172D
:1001F0008C0083168C130C150B08F0008B135530F4
:100200008D00AA308D008C14F01B08298B1309294E
:060210008B170C11080021
:100216008316031334103F08C2001A2083163414C1
:020226000800CE
:1002280078207008BF000F3083120805F00003190A
:0E0238001F29A920172983163F08F00008008F
:10024600831603133F08831203178D0083168C133E
:0A0256000C1483120C08F0000800DD
:10026000343083120313FC00F130FD00FD0B3629FE
:0A027000FC0B362900000000080016
:10027A0030218316BF01831263088316C000E82069
:10028A00302101308316BF00831264088316C00030
:10029A00E820302102308316BF00831265088316D6
:1002AA00C000E820302103308316BF00831266089D
:0802BA008316C000E8200800D3
:1002C20030218316BF012321700883160313B70060
:1002D200302101308316BF002321700883160313D7
:1002E200B800302102308316BF0023217008831624
:1002F2000313B900302103308316BF002321700895
:0A03020083160313BA00302108002F
:10030C0083120313EF01142170088312EF0070089D
:10031C0003198929B5293130EF00E5293230EF0076
:10032C00E5293330EF00E5293430EF00E52935308D
:10033C00EF00E5293630EF00E5293730EF00E529ED
:10034C003830EF00E5293930EF00E5292A30EF008D
:10035C00E5293030EF00E5292330EF00E5296F085F
:10036C00013A031991296F08023A031994296F086D
:10037C00033A031997296F08053A03199A296F084C
:10038C00063A03199D296F08073A0319A0296F082B
:10039C00093A0319A3296F080A3A0319A6296F0809
:1003AC000B3A0319A9296F080D3A0319AC296F08E8
:1003BC000E3A0319AF296F080F3A0319B2292F0807
:1003CC00633E84006F08800002308316BF008312E6
:1003DC002F0A8316C00083122F08633E8400000886
:1003EC008316C100B1208312AF0A0319B00A0800AA
:0E03FC00831203136E088A006D088200080049
:10040A00172A803083160313BB002A2AC030BB0088
:10041A002A2A9430BB002A2AD430BB002A2A8030E8
:10042A00BB002A2A831603133B08013A0319062A3A
:10043A003B08023A03190B2A3B08033A03190E2A0E
:10044A003B08043A0319112A142A3C03F0003B081A
:10045A00F0077008BB007008C2001A208316341017
:10046A00BE013E083D07840000080319442A3E08DD
:10047A003D0784000008BF000B21BE0A362A341447
:02048A00080068
:10048C00013083160313C2001A2001308316BB00FF
:10049C000130BC002030BD0005228312AF01B00139
:0E04AC0086218621862186213D2161210800BE
:1004BA008316031386110611061286120613861373
:1004CA008312861106118613061386120612062057
:1004DA000620062086160616861503208611062093
:1004EA00861503208611062086150320861106200C
:1004FA00061286150320861106208615032086110A
:10050A00861286178615032086110620861306167C
:10051A0086150320861106128615032086110620E9
:10052A0086150320861106168615032086110620D5
:10053A0006128615032086118617061786160616D2
:0E054A0086150320861106208316341408003F
:0A055800FF3083160313880008002B
:10056200FE218A110A128000840AED0A0319EE0A9A
:08057200F003031DB12A08008B
:10057A002C240730831603139F0485018312051464
:10058A000511AC225D22612183163708FF3A031D4B
:10059A00F32A3808FF3A031DF32A3908FF3A031DE4
:1005AA00F32A3A08FF3A031DF32ABF013230C0008A
:1005BA00E820302101308316BF003330C000E82024
:1005CA00302102308316BF003430C000E8203021C9
:1005DA0003308316BF003530C000E82061210130A6
:1005EA008316C2001A200C308316C2001A2001306A
:1005FA008316BB000130BC00A030BD0005220630C6
:10060A00FB001330FC00AD30FD00FD0B0A2BFC0B88
:10061A000A2BFB0B0A2B000000000130C2001A2033
:10062A008316B501B60183160130C2001A200230C2
:10063A008316BB000330BC003D30BD000522831287
:10064A00AF01B001862163082A3A031DCD2B013080
:10065A008316C2001A2001308316BB000130BC0089
:10066A003130BD0005228312AF01B00186218621F7
:10067A008621862186216308323A031D5A2B640893
:10068A00333A031D5A2B6508343A031D5A2B660860
:10069A00353A031D5A2B6708353A031D5A2B862112
:1006AA006808233A031D5A2B4622803083163606E1
:1006BA00F00080307002031D642B033035020318EA
:1006CA00AF2B8312630883163706031DAF2B8312E1
:1006DA00640883163806031DAF2B83126508831638
:1006EA003906031DAF2B8312660883163A06031DCB
:1006FA00AF2B83126708233A031DAF2B01308316F1
:10070A00C2001A2001308316BB000130BC004530FC
:10071A00BD0005228312051005151530FB004B306C
:10072A00FC00BE30FD00FD0B982BFC0B982BFB0B3D
:10073A00982B000005111F30FB007130FC001E30A1
:10074A00FD00FD0BA62BFC0BA62BFB0BA62B00001A
:10075A000514BE2B8316B50A0319B60A0130C20066
:10076A001A2001308316BB000130BC005430BD0092
:10077A000522831680303606F00080307002031D91
:10078A00C82B03303502031CCD2B83120515CA2B47
:04079A00182BCE2B1F
:1008580020308400433083120313F000D430ED00BD
:100868000330EE00B122A030840014308312F0006F
:0C0878001730ED000430EE00B122080043
:1007A80045346E3474346534723420344E346534D0
:0E07B8007734203443346F34643465340034B5
:0407C60000340034C7
:1007CA0045346E34743465347234203443346F34AF
:0807DA0064346534003400347E
:1007E2005034723465347334733420342A34003410
:1007F200413463346334653473347334203447349E
:0E080200723461346E347434653464340034FE
:100810004134633463346534733473342034443482
:0E08200065346E346934653464340034003459
:10082E0049346E3469347434693461346C346934E7
:10083E007A3469346E3467342E342E342E342E349A
:08084E002E342E340034003476
:02400E004A2F37
:00000001FF
